{
  "address": "0x5FbDB2315678afecb367f032d93F642f64180aa3",
  "abi": [
    {
      "inputs": [
        {
          "internalType": "uint256",
          "name": "",
          "type": "uint256"
        }
      ],
      "name": "allMultisig",
      "outputs": [
        {
          "internalType": "uint256",
          "name": "_multisigIndex",
          "type": "uint256"
        },
        {
          "internalType": "address",
          "name": "_owner",
          "type": "address"
        },
        {
          "internalType": "address",
          "name": "_contract",
          "type": "address"
        }
      ],
      "stateMutability": "view",
      "type": "function"
    },
    {
      "inputs": [
        {
          "internalType": "string",
          "name": "societyName",
          "type": "string"
        },
        {
          "internalType": "string",
          "name": "deposit",
          "type": "string"
        }
      ],
      "name": "createMultisig",
      "outputs": [],
      "stateMutability": "nonpayable",
      "type": "function"
    },
    {
      "inputs": [
        {
          "internalType": "uint256",
          "name": "_tokenId",
          "type": "uint256"
        }
      ],
      "name": "getMultisigDetails",
      "outputs": [
        {
          "components": [
            {
              "internalType": "uint256",
              "name": "_multisigIndex",
              "type": "uint256"
            },
            {
              "internalType": "address",
              "name": "_owner",
              "type": "address"
            },
            {
              "internalType": "address",
              "name": "_contract",
              "type": "address"
            }
          ],
          "internalType": "struct MultisigFactory.MultisigStruct",
          "name": "",
          "type": "tuple"
        }
      ],
      "stateMutability": "view",
      "type": "function"
    },
    {
      "inputs": [],
      "name": "numMultisigs",
      "outputs": [
        {
          "internalType": "uint256",
          "name": "",
          "type": "uint256"
        }
      ],
      "stateMutability": "view",
      "type": "function"
    }
  ],
  "transactionHash": "0xf3b1a6d662a0ae3c9fa84fee9e58b41a0f2b24514a517401ad83b83026b2a5ee",
  "args": [],
  "numDeployments": 1,
  "solcInputHash": "fd3211d1b2d1b1330fcb1684efd59d83",
  "bytecode": "0x608060405234801561001057600080fd5b50610d9e806100206000396000f3fe60806040523480156200001157600080fd5b5060043610620000525760003560e01c80633795c2d3146200005757806350f86c881462000079578063a7d07de814620000af578063fd60705b14620000e7575b600080fd5b6200006162000107565b60405162000070919062000429565b60405180910390f35b6200009760048036038101906200009191906200048b565b6200010d565b604051620000a691906200055b565b60405180910390f35b620000cd6004803603810190620000c791906200048b565b620001f1565b604051620000de9392919062000589565b60405180910390f35b620001056004803603810190620000ff919062000728565b6200025b565b005b60015481565b62000117620003b3565b600080838152602001908152602001600020604051806060016040529081600082015481526020016001820160009054906101000a900473ffffffffffffffffffffffffffffffffffffffff1673ffffffffffffffffffffffffffffffffffffffff1673ffffffffffffffffffffffffffffffffffffffff1681526020016002820160009054906101000a900473ffffffffffffffffffffffffffffffffffffffff1673ffffffffffffffffffffffffffffffffffffffff1673ffffffffffffffffffffffffffffffffffffffff16815250509050919050565b60006020528060005260406000206000915090508060000154908060010160009054906101000a900473ffffffffffffffffffffffffffffffffffffffff16908060020160009054906101000a900473ffffffffffffffffffffffffffffffffffffffff16905083565b60003383836040516200026e9062000400565b6200027c9392919062000840565b604051809103906000f08015801562000299573d6000803e3d6000fd5b509050604051806060016040528060015481526020013373ffffffffffffffffffffffffffffffffffffffff1681526020018273ffffffffffffffffffffffffffffffffffffffff1681525060008060015481526020019081526020016000206000820151816000015560208201518160010160006101000a81548173ffffffffffffffffffffffffffffffffffffffff021916908373ffffffffffffffffffffffffffffffffffffffff16021790555060408201518160020160006101000a81548173ffffffffffffffffffffffffffffffffffffffff021916908373ffffffffffffffffffffffffffffffffffffffff16021790555090505060016000815480929190620003a990620008ba565b9190505550505050565b604051806060016040528060008152602001600073ffffffffffffffffffffffffffffffffffffffff168152602001600073ffffffffffffffffffffffffffffffffffffffff1681525090565b610460806200090983390190565b6000819050919050565b62000423816200040e565b82525050565b600060208201905062000440600083018462000418565b92915050565b6000604051905090565b600080fd5b600080fd5b62000465816200040e565b81146200047157600080fd5b50565b60008135905062000485816200045a565b92915050565b600060208284031215620004a457620004a362000450565b5b6000620004b48482850162000474565b91505092915050565b620004c8816200040e565b82525050565b600073ffffffffffffffffffffffffffffffffffffffff82169050919050565b6000620004fb82620004ce565b9050919050565b6200050d81620004ee565b82525050565b6060820160008201516200052b6000850182620004bd565b50602082015162000540602085018262000502565b50604082015162000555604085018262000502565b50505050565b600060608201905062000572600083018462000513565b92915050565b6200058381620004ee565b82525050565b6000606082019050620005a0600083018662000418565b620005af602083018562000578565b620005be604083018462000578565b949350505050565b600080fd5b600080fd5b6000601f19601f8301169050919050565b7f4e487b7100000000000000000000000000000000000000000000000000000000600052604160045260246000fd5b6200061b82620005d0565b810181811067ffffffffffffffff821117156200063d576200063c620005e1565b5b80604052505050565b60006200065262000446565b905062000660828262000610565b919050565b600067ffffffffffffffff821115620006835762000682620005e1565b5b6200068e82620005d0565b9050602081019050919050565b82818337600083830152505050565b6000620006c1620006bb8462000665565b62000646565b905082815260208101848484011115620006e057620006df620005cb565b5b620006ed8482856200069b565b509392505050565b600082601f8301126200070d576200070c620005c6565b5b81356200071f848260208601620006aa565b91505092915050565b6000806040838503121562000742576200074162000450565b5b600083013567ffffffffffffffff81111562000763576200076262000455565b5b6200077185828601620006f5565b925050602083013567ffffffffffffffff81111562000795576200079462000455565b5b620007a385828601620006f5565b9150509250929050565b600081519050919050565b600082825260208201905092915050565b60005b83811015620007e9578082015181840152602081019050620007cc565b83811115620007f9576000848401525b50505050565b60006200080c82620007ad565b620008188185620007b8565b93506200082a818560208601620007c9565b6200083581620005d0565b840191505092915050565b600060608201905062000857600083018662000578565b81810360208301526200086b8185620007ff565b90508181036040830152620008818184620007ff565b9050949350505050565b7f4e487b7100000000000000000000000000000000000000000000000000000000600052601160045260246000fd5b6000620008c7826200040e565b91507fffffffffffffffffffffffffffffffffffffffffffffffffffffffffffffffff821415620008fd57620008fc6200088b565b5b60018201905091905056fe608060405234801561001057600080fd5b5060405161046038038061046083398181016040528101906100329190610327565b826000806101000a81548173ffffffffffffffffffffffffffffffffffffffff021916908373ffffffffffffffffffffffffffffffffffffffff16021790555081600190805190602001906100889291906100a8565b50806002908051906020019061009f9291906100a8565b50505050610413565b8280546100b4906103e1565b90600052602060002090601f0160209004810192826100d6576000855561011d565b82601f106100ef57805160ff191683800117855561011d565b8280016001018555821561011d579182015b8281111561011c578251825591602001919060010190610101565b5b50905061012a919061012e565b5090565b5b8082111561014757600081600090555060010161012f565b5090565b6000604051905090565b600080fd5b600080fd5b600073ffffffffffffffffffffffffffffffffffffffff82169050919050565b600061018a8261015f565b9050919050565b61019a8161017f565b81146101a557600080fd5b50565b6000815190506101b781610191565b92915050565b600080fd5b600080fd5b6000601f19601f8301169050919050565b7f4e487b7100000000000000000000000000000000000000000000000000000000600052604160045260246000fd5b610210826101c7565b810181811067ffffffffffffffff8211171561022f5761022e6101d8565b5b80604052505050565b600061024261014b565b905061024e8282610207565b919050565b600067ffffffffffffffff82111561026e5761026d6101d8565b5b610277826101c7565b9050602081019050919050565b60005b838110156102a2578082015181840152602081019050610287565b838111156102b1576000848401525b50505050565b60006102ca6102c584610253565b610238565b9050828152602081018484840111156102e6576102e56101c2565b5b6102f1848285610284565b509392505050565b600082601f83011261030e5761030d6101bd565b5b815161031e8482602086016102b7565b91505092915050565b6000806000606084860312156103405761033f610155565b5b600061034e868287016101a8565b935050602084015167ffffffffffffffff81111561036f5761036e61015a565b5b61037b868287016102f9565b925050604084015167ffffffffffffffff81111561039c5761039b61015a565b5b6103a8868287016102f9565b9150509250925092565b7f4e487b7100000000000000000000000000000000000000000000000000000000600052602260045260246000fd5b600060028204905060018216806103f957607f821691505b6020821081141561040d5761040c6103b2565b5b50919050565b603f806104216000396000f3fe6080604052600080fdfea264697066735822122007c655337dbc7963296e7433583cce6ed2d484204847398fd77066aa5666aa4b64736f6c634300080a0033a26469706673582212204bf801cbcd428d91ada1c01f008d276089be99d8aa68735586f441e5aaeaf10464736f6c634300080a0033",
  "devdoc": {
    "kind": "dev",
    "methods": {},
    "version": 1
  },
  "userdoc": {
    "kind": "user",
    "methods": {},
    "version": 1
  },
  "storageLayout": {
    "storage": [
      {
        "astId": 94,
        "contract": "contracts/MultisigFactory.sol:MultisigFactory",
        "label": "allMultisig",
        "offset": 0,
        "slot": "0",
        "type": "t_mapping(t_uint256,t_struct(MultisigStruct)89_storage)"
      },
      {
        "astId": 96,
        "contract": "contracts/MultisigFactory.sol:MultisigFactory",
        "label": "numMultisigs",
        "offset": 0,
        "slot": "1",
        "type": "t_uint256"
      }
    ],
    "types": {
      "t_address": {
        "encoding": "inplace",
        "label": "address",
        "numberOfBytes": "20"
      },
      "t_mapping(t_uint256,t_struct(MultisigStruct)89_storage)": {
        "encoding": "mapping",
        "key": "t_uint256",
        "label": "mapping(uint256 => struct MultisigFactory.MultisigStruct)",
        "numberOfBytes": "32",
        "value": "t_struct(MultisigStruct)89_storage"
      },
      "t_struct(MultisigStruct)89_storage": {
        "encoding": "inplace",
        "label": "struct MultisigFactory.MultisigStruct",
        "members": [
          {
            "astId": 84,
            "contract": "contracts/MultisigFactory.sol:MultisigFactory",
            "label": "_multisigIndex",
            "offset": 0,
            "slot": "0",
            "type": "t_uint256"
          },
          {
            "astId": 86,
            "contract": "contracts/MultisigFactory.sol:MultisigFactory",
            "label": "_owner",
            "offset": 0,
            "slot": "1",
            "type": "t_address"
          },
          {
            "astId": 88,
            "contract": "contracts/MultisigFactory.sol:MultisigFactory",
            "label": "_contract",
            "offset": 0,
            "slot": "2",
            "type": "t_address"
          }
        ],
        "numberOfBytes": "96"
      },
      "t_uint256": {
        "encoding": "inplace",
        "label": "uint256",
        "numberOfBytes": "32"
      }
    }
  }
}